:020000040800F2
:10000000E8070020C5010008693C00084D2C0008E5
:10001000653C0008290900089D3D0008000000001B
:10002000000000000000000000000000913D0008FA
:100030002D090008000000006D3C0008953D0008F7
:10004000DF010008DF010008DF010008DF01000810
:10005000DF010008DF010008DF010008DF01000800
:10006000DF010008DF010008DF010008DF010008F0
:10007000DF010008DF010008DF010008DF010008E0
:10008000DF010008DF010008DF010008DF010008D0
:10009000DF010008DF010008DF010008DF010008C0
:1000A000DF010008DF010008DF010008DF010008B0
:1000B000DF010008DF010008DF010008DF010008A0
:1000C000DF010008DF010008DF010008DF01000890
:1000D000DF010008DF010008DF010008DF01000880
:1000E000DF010008DF010008DF01000800F002F86E
:1000F00000F058F814A696E8000CB244B344DA4570
:1001000001D100F04FF8BAE80F000FA696E83000D2
:10011000A5EB040504EB0607AAEB0704A7F101070A
:100120004FEA15154FEA3414A4F10104AC4201D38F
:1001300000F038F813F0010F18BFFB1A43F0010369
:1001400000F001F8DBE71847B8660000D866000049
:10015000103A24BF78C878C1FAD8520724BF30C8F3
:1001600030C144BF04680C60704700007047000055
:100170000023002400250026103A28BF78C1FBD8B0
:10018000520728BF30C148BF0B607047642900F098
:100190009580752900F09280002070471FB51FBD23
:1001A00010B510BD00F08EFA1146FFF7F7FF03F00F
:1001B000F7FD00F0ACFA03B4FFF7F2FF03BC00F068
:1001C000AFFA00000948804709480047FEE7FEE70C
:1001D000FEE7FEE7FEE7FEE7FEE7FEE7FEE7FEE7F7
:1001E00004480549054A064B70470000993D000840
:1001F000ED000008E8010020E8070020E8030020E7
:10020000E80300200FB41CB5074B06AA7B446946DF
:100210000090059800F0FBF90020694600F00AFA0A
:100220001CBC5DF814FB0000250400000FB41CB5D5
:100230000C0007AA009007D04142A14202D32044FB
:10024000401E01E04FF0FF30074B7B4469460190B0
:10025000069800F0DCF90020002C01D0009908700D
:100260001CBC5DF814FB0000F103000070B50446EF
:1002700085690068C10601D5302600E02026C00748
:1002800007D070BDD4E9012130469047206A401C58
:1002900020626D1EF6D570BD70B504468569007884
:1002A000C00707D170BDD4E9012120209047206A02
:1002B000401C20626D1EF6D570BD00002DE9F04196
:1002C0000646002410687529314616A510D0AFF3F4
:1002D0000080002802DA404213A507E031688A074F
:1002E00001D512A502E0490704D511A5012401E0BA
:1002F000AFF3008000210A2206F1240709E0B0FBD9
:10030000F2FCB0FBF2F302FB1C00303078541846CC
:10031000491C0028F3D123462A463046BDE8F04167
:1003200000F016B9000000002D0000002B000000B6
:10033000200000002DE9F05F894604464FF0000AD6
:10034000DFF824B1FB44C0F820A02046E1688847CC
:1003500000287DD0252806D0D4E901219047206AC5
:10036000401C2062F1E700255F462046E16888478F
:100370002028064607DB312E05D2B81910F8200CCC
:1003800008B10543F1E7A80701D525F00405C4F835
:100390001CA00027C4F818A02A2E09D0304604F06B
:1003A00045FA38B304EB8708303EC8F8186019E006
:1003B00059F8041B204604EB87029161E1688847E5
:1003C000012F064618D1E069002820DA25F0200523
:1003D0001DE0D8F8180000EB800006EB4000303834
:1003E000C8F818002046E1688847064604F01EFA5F
:1003F0000028EED1012F0AD02E2E08D12046E16828
:1004000088477F1C0646022F45F02005C4DBA06903
:10041000002803DA404245F00105A061E80701D059
:1004200025F01005A6B1A6F14100192802D8203602
:1004300045F400654A463146204625604D46FFF7A3
:10044000A5FE60B1012807D0ED1D25F0070000E0F2
:1004500007E000F1080978E705F1040975E730467F
:100460007AE7206ABDE8F09FD662000010B5431C11
:1004700002E010F8011B71B18107FAD14FF001328F
:1004800002C88C1A8C4314EAC211F9D0C01A0A06A9
:1004900003D0C01E10BDC01A10BD0A0401D0801EBA
:1004A00010BD0902FCD0401E10BD032A40F230806E
:1004B00010F0030C00F0158011F8013BBCF1020FA5
:1004C000624498BF11F801CB00F8013B38BF11F826
:1004D000013BA2F1040298BF00F801CB38BF00F83D
:1004E000013B11F0030300F0B280083AC0F008802D
:1004F00051F8043B083A51F804CBA0E80810F5E79E
:10050000121D5CBF51F8043B40F8043BAFF3008080
:10051000D20724BF11F8013B11F801CB48BF11F8F5
:10052000012B24BF00F8013B00F801CB48BF00F8C5
:10053000012B704770477047704710B500F0BAF84C
:10054000006810BD10B5044600F0B4F8046010BD9A
:100550002DE9F0470D4699469246044600F12408DD
:100560000168880604D5E06921F01001216000E0EF
:100570000120A84201DD471B00E00027A1697A198C
:1005800002EB0900081AA0612078C00602D42046B8
:10059000FFF76CFE002608E0D4E901211AF80600F6
:1005A0009047206A401C761C20624E45F4DB207880
:1005B000C0060AD52046FFF759FE06E0D4E901211E
:1005C00030209047206A401C2062381EA7F10107A6
:1005D000F4DC07E0D4E9012118F805009047206A0F
:1005E000401C2062281EA5F10105F3DC2046FFF720
:1005F00053FE2078000602D50220BDE8F0870120D6
:10060000FBE7000001694A1C02610878704700B5E9
:100610008FB0CDE901310021059105497944CDE93B
:10062000031011466846FFF785FE0FB000BD0000BD
:10063000E5FFFFFF0A6802F8010B0A607047D1E985
:1006400000239A4202D2531C0B601070704710B501
:10065000203AC0F00B80B1E81850A0E81850B1E87B
:100660001850A0E81850203ABFF4F5AF5FEA027CBA
:1006700024BFB1E81850A0E8185044BF18C918C0EA
:10068000BDE810405FEA827C24BF51F8043B40F88B
:10069000043B08BF7047D20728BF31F8023B48BF70
:1006A00011F8012B28BF20F8023B48BF00F8012BAE
:1006B0007047000000487047100000200048704755
:1006C000100000207546FFF7F9FFAE4605006946A9
:1006D000534620F00700854618B020B5FFF780FD8F
:1006E000BDE820404FF000064FF000074FF0000833
:1006F0004FF0000BAC46ACE8C009ACE8C009ACE870
:10070000C009ACE8C00921F007018D46704710B55B
:100710000446AFF300802046BDE81040FFF74BBD14
:1007200001491820ABBEFEE726000200704700001A
:10073000B0B582B004460020019021688A68D207D3
:100740004BD1886840F00100886040F20800C2F296
:10075000000000684DF68361C4F21B31A0FB01016B
:10076000880C01900198A0B101980138019001987E
:1007700078B1019801380190019850B10198013881
:100780000190019828B10198013801900198002842
:10079000EAD100F049FE21688968C9071CD10546E5
:1007A00003E000BF8068C00716D100F03DFE411B8A
:1007B00020680329F6D38168C907F3D1A06A40F005
:1007C0001000A062E06A40F00100E062002084F8BE
:1007D0002400012002B0B0BD002002B0B0BD000076
:1007E00010B584B040F6BE00039000208DF80B00D9
:1007F0006420642400F0EEFC40F2F000C2F200003D
:100800000DF10B02702101230094012400F0C4FEBD
:1008100010B1204604B010BD9DF80B00000729D48C
:1008200040F2F0006424C2F2000003AA7021032306
:10083000009401F0B1F818B10124204604B010BDB5
:100840000A2000F0C7FC40F2F000C2F200000DF1F7
:100850000B02702101230094012400F09DFE00286A
:10086000D7D19DF80B00000704D40124204604B022
:1008700010BD00BF0024204604B010BDB0B584B048
:10088000044643F2AC3003900020ADF8080001901C
:1008900040F2F0006425C2F2000003AA7021032395
:1008A000009501F079F868B9502000F093FC40F20F
:1008B000F000C2F2000001AA70210623009500F0AA
:1008C0006BFE18B1012004B0B0BD00BF9DF904005B
:1008D000002825D49DF805009DF806109DF80830E5
:1008E0009DF80720000340EA0110190240EA1210A7
:1008F00062F313414FF47A729DF809305043000DB2
:10090000194460804FF4FA6048434FF60C61CFF60B
:10091000FF7101EB10502080002004B0B0BD00BF7B
:10092000022004B0B0BD0000FEE7000070470000E8
:1009300010B584B000208DF8090040F2F000642466
:10094000C2F200000DF10902A6210123009401F07A
:1009500023F858B940F2F000C2F200000DF107028E
:10096000A6210223009400F017FE18B1012004B064
:1009700010BD00BF9DF8070060284FF0010041D175
:100980009DF8081001293DD14FF21000ADF80A0082
:1009900040F2F0006424C2F200000DF10A02A62128
:1009A0000223009400F0F8FF0028DFD1642000F05B
:1009B00011FC4FF48870ADF80C0040F2F000C2F268
:1009C000000003AAA6210223009400F0E5FF0028FE
:1009D000CCD10A2000F0FEFB4FF40470ADF80E00FD
:1009E00040F2F0006424C2F200000DF10E02A621D4
:1009F0000223009400F0D0FF0028B7D1322000F08D
:100A0000E9FB002004B010BDB0B584B0044620203E
:100A10008DF80D0040F2F0006425C2F200000DF1E7
:100A20000D02A6210123009500F0B6FF20B101259B
:100A3000284604B0B0BD00BF40F2F000C2F2000092
:100A400003AAA62101230095012500F0A5FD002899
:100A5000EED19DF80C00800704D40225284604B08E
:100A6000B0BD00BF22208DF80E0040F2F0006425DA
:100A7000C2F200000DF10E02A6210123009500F044
:100A80008BFF18B10125284604B0B0BD40F2F0003C
:100A9000C2F200000DF10A02A6210223009500F027
:100AA0007BFD18B10125284604B0B0BDBDF80A0091
:100AB0006425608024208DF80F0040F2F000C2F21F
:100AC00000000DF10F02A6210123009500F064FF44
:100AD00020B10125284604B0B0BD00BF40F2F000AF
:100AE000C2F200000DF10A02A6210223009500F0D7
:100AF00053FD18B10125284604B0B0BDBDF80A0069
:100B000000252080284604B0B0BD000070B581B03B
:100B10000022009290F82420012A03D102210846E5
:100B200001B070BD4A680123062A02EB820E80F8EC
:100B3000243007D8D0F800C06FF004030CF134065D
:100B40000CE000BFD0F800C00C2A87BF0CF12C06C7
:100B50006FF040030CF130066FF022030EEB03023E
:100B60001F23346803FA02F50B6824EA050503FA2B
:100B700002F22A433260092B03EB43021AD9DCF854
:100B80000C601E3A072589689540AE43914023F0DA
:100B900001023143102ACCF80C1015D142F2004169
:100BA000C4F201018C4517D0816A41F020018162B5
:100BB00001210AE0DCF81030072689689640B3432B
:100BC00091401943CCF810100021002280F8242015
:100BD000084601B070BD00BF89680902F4D4DCF892
:100BE0000810102B41F40001CCF80810ECD140F2B1
:100BF0000801C2F2000109684DF68362C4F21B329B
:100C0000A1FB0212910C01EB8101490000910099B6
:100C10000029D9D000990139009100990029D3D039
:100C200000990139009100990029CDD0009901392E
:100C3000009100990029C7D00099013900910099CD
:100C400000294FF00001E5D1BFE700000068C06C4B
:100C500070470000002804BF01207047B0B504466B
:100C6000806A28B121688868C0070CD115E000BFF0
:100C70000020E06284F82400204600F097F8216804
:100C80008868C00709D0886820F00100886000F0FB
:100C9000CBFB21688A68D20726D1A06AC0063AD465
:100CA000A06A41F2021290430230A062E069D4E9E6
:100CB000013240EA030C531EB3FA83F35D09134675
:100CC000B2F5807F18BF2B02207D257B01284CEADE
:100CD00045002CD135B3A56A45F02005A562E56A2B
:100CE00045F00105E56222E0054602E08868C0079C
:100CF000D3D000F099FB401B21680328F6D3886805
:100D0000C007F3D0A06A40F01000A062E06A40F093
:100D10000100E062A06AA06A40F01000A062012019
:100D2000B0BD00BFA56903EB4533A3F5C0534D68C3
:100D3000B2F5807F25F4694543EA05034B608B6873
:100D40004FF2FD75CFF6E17503EA050343EA0003B0
:100D50008B6001D0012A07D122690023CFF6F073FE
:100D600003EB025201E000BF0022CB6A23F47003C0
:100D70001A43CA62896840F6FE62CFF61F721140BC
:100D8000814207D10020E062A16A012262F30101E1
:100D9000A162B0BDA06A40F0100020F00200A06285
:100DA000E06A40F00100E0620120B0BD80B586B08D
:100DB000014640F60000C4F20100096800F5E05267
:100DC00091424FF00001CDE90411CDE9021101D0AB
:100DD00006B080BD41F21801C4F202010A6842F473
:100DE00000720A600A6802F400720192019A0A68AD
:100DF00042F004020A60096801F0040101910199BE
:100E0000072102910321039102A900F0F7F906B02E
:100E100080BD00002DE9F04182B000270D46044658
:100E2000019700F001FB21688A68D20544D4064688
:100E30004868C00503D4C86A10F4700F46D040F269
:100E40000800C2F20000076842F292480220C1F294
:100E5000492800F069FF216844F624130A69B7FBAA
:100E6000F0F0C2F292431A4206D1CA6844F6241343
:100E7000C0F292031A425BD00A6912EA080F07D146
:100E8000CA6842F29243C0F249031A4200F0C0809D
:100E90000A6949F24923C0F224031A424FF0FC02C6
:100EA00054D1CF681F4208BF5422019B02FB00F7B8
:100EB000BB4250D3C3E000BFA06A40F02000A06254
:100EC00084F82470012002B0BDE8F0810868800732
:100ED00000F1B580681C00F0A880FDB908688007A3
:100EE00070D50868800700F1AA800868800769D576
:100EF0000868800700F1A3800868800762D5086849
:100F0000800700F19C80086880075BD5086880072F
:100F1000E4D594E00868800700F1918000F084FA3D
:100F2000801B2168A842F5D908688007F2D449E0FF
:100F30000A6912EA080F4FF0290207D1CB6842F282
:100F40009247C0F249073B4208BF1422019B02FBB3
:100F500000F7BB4273D2681C52D05DBB0198B84207
:100F600030D30198013001900198B84267D20198BE
:100F7000B84227D30198013001900198B8425ED25F
:100F80000198B8421ED30198013001900198B842EF
:100F900055D20198B84215D30198013001900198BB
:100FA000B842DBD34BE000BF0198013001900198BB
:100FB000B84235D200F038FA801BA842F4D9019823
:100FC000B842F1D2A06A40F00400A062002084F888
:100FD0002400032002B0BDE8F08100BF0198013079
:100FE00001900198B8422AD20198013001900198ED
:100FF000B84224D20198013001900198B8421ED223
:101000000198013001900198B842E7D317E000BF82
:101010005422019B02FB00F7BB429CD30FE000BFB0
:1010200021680CE00868800709D40868800706D4A6
:10103000086880075CBF08685FEA8070F2D56FF0CF
:1010400012000860A06A40F40070A062886800F492
:101050006020B0F5602F01D1207B18B1002002B0D4
:10106000BDE8F081A06A20F48070A062A06AC0048C
:10107000F4D4A06A40F00100A062002002B0BDE8F4
:10108000F081000010B5044690F82400012804BF48
:10109000022010BD012084F824002046FFF748FB01
:1010A00020B1002084F82400012010BD42F2044C3D
:1010B0002068A16AC4F2010C40F2013291430CF5A0
:1010C0007F7201F580719042A16229D0A16A21F45A
:1010D0008011A1624168490504D5A16A012363F327
:1010E0000D31A162A16A0023C9044FF0000144BF81
:1010F000E16A21F00601E1626FF0020184F8243018
:101100000160816801F46021B1F5602F1BD190422C
:1011100014D0816841F4A0018160002010BD00BF9F
:10112000DCF8001011F4702FD0D0A16A41F48011C6
:10113000A162DCF800104905CFD4D3E7DCF8001039
:1011400011F4702FE5D0816841F480118160002096
:1011500010BD0000B0B5044690F82400012804BF7B
:101160000220B0BD0121206884F824108168C907DD
:1011700009D0816821F00101816000F055F92168F2
:101180008968C9070ED1214651F8280F41F2011292
:1011900020EA0202002042F001020A60002184F8E5
:1011A0002410B0BD054602E08068C007EBD000F017
:1011B0003BF9411B20680329F6D38168C907F3D0A6
:1011C000A06A214640F01000A06251F82C2F0120A7
:1011D000E1E70000B0B5044600F026F9054640F20C
:1011E0000000C2F200000078611C18BF044400BF78
:1011F00000F01AF9401BA042FAD3B0BD2DE9F04F20
:1012000082B00E68002E00F0FD8041F20042C4F270
:101210000102042340F2004E904208BF03234FF620
:10122000FF7CC4F2010E009300240123C1F2100CD4
:101230004FF0000A4FF000094BE000BF41F20002FE
:10124000C4F20102009F904208BF022704F00C0381
:101250000F229A402BEA020207FA03F34FEA9A059B
:101260001A4346F825204E6840F20C45F202DEF89B
:10127000082054BF22EA080242EA0802C4F201052B
:10128000CEF808202A68B30254BF22EA080242EAD4
:1012900008022A60B303DEF8042054BF22EA0802E1
:1012A00042EA0802F303CEF80420DEF800204FF0F3
:1012B000010354BF22EA080242EA0802CEF80020E5
:1012C0000E680AF1010A36FA0AF204F1040400F089
:1012D000998003FA0AFB16EA0B08F1D04E686645BE
:1012E00012DC122E56D8DFE806F0350B4D49555565
:1012F000555555555555555555555545510000BFF2
:10130000D1F80C9046E000BF4FF6FF72C1F2210207
:1013100096420FDC0022C1F2110296421AD000223E
:10132000C1F21202964215D00022C1F22102964269
:1013300010D02FE00022C1F2220296420AD00022F1
:10134000C1F23102964205D00022C1F23202964229
:1013500020D100BF8A684AB1012A14BFC0F814B076
:10136000C0F810B04FF0080914E000BF4FF00409B6
:1013700010E000BFCA6802F104090BE04FF0000959
:1013800008E000BFCA6802F1080903E0CA6802F178
:101390000C0900BF02462646B8F5807F24BF043200
:1013A000203E17680F25B54027EA050509FA06F61D
:1013B00035431560CA79D2067FF582AF41F2180332
:1013C000C4F202031A68AEF57E7642F001021A609A
:1013D0001A6802F001020192019A2AF0030256F8FB
:1013E00002B040F60002C4F20102904208D040F67A
:1013F0000042C4F2010290427FF420AF012725E7AA
:10140000002723E702B0BDE8F08F0000C26802EABF
:101410000103914341EA034101617047002A08BF7B
:10142000090401617047000040F2E410C2F20000BC
:1014300000687047002804BF01207047F0B581B0F4
:10144000044690F83D0028B9002084F83C0020466E
:1014500000F090FB242084F83D002068016821F012
:1014600001010160016841F400410160016821F45B
:101470000041016000F034FE636848F2A16CC0F2E4
:10148000010C40F60011C0F23D0163453CBF48F23B
:101490008041C0F21E01884202D2012001B0F0BD9D
:1014A0004DF68361C4F21B31A0FB01122168970C39
:1014B000D1F804E04FF496762EF03F0545EA9245C8
:1014C0004D60774348F638160D6AC0F24106A7FB17
:1014D000067625F03F07634538BF960C721C3A43E9
:1014E0000A62CA6948F2A0664CF6FF77C0F20106AC
:1014F000B34222EA07020BD801385B00B0FBF3F0DD
:1015000001306FF31F30042898BF04201BE000BF98
:10151000A768013857B119277B43B0FBF3F00130BE
:101520006FF31F3070B100F5804007E003EB430319
:10153000B0FBF3F001306FF31F3018B100F500403D
:1015400001E000BF01201043C8610868D4E9072307
:1015500020F0C000104318430860886848F2FF324A
:1015600004F10C0790438CCF18431043A6698860A0
:10157000C86820F0FF0038433043C860086840F076
:101580000100086000202021206484F83D102063C1
:1015900084F83E0001B0F0BD2DE9F04784B0044668
:1015A00000201F46164689460290FFF73DFF94F83B
:1015B0003D10202924D10546206800BF8169890794
:1015C0001AD5FFF731FF411B20681A29F6D381692C
:1015D0008907F3D500202021206384F83D1084F88A
:1015E0003E00216C41F02001216484F83C0002207F
:1015F00004B0BDE8F08700BF94F83C10012903D186
:10160000022004B0BDE8F087012184F83C10016895
:10161000C90703D1016841F0010101600168DDF8EB
:10162000308021F400610160222184F83D101021F6
:1016300084F83E100021216466626785618D02276F
:10164000C0F201072185A7F10211E162E16A026897
:1016500011F5803F42F48062026018BF01293DD13C
:10166000016841F48071016020464FF001110022B1
:101670004346009501F04AFB50B120680068C00560
:1016800044BF4FF400702064012004B0BDE8F0872F
:101690002069B0F5804F27D149F00100C0B2216820
:1016A00042460861204639462B4601F015FC0028C9
:1016B000EAD1208D022861D0012849D0002840F0CD
:1016C0007380002003902068416903918169039130
:1016D0000399016841F40071016071E00829BFD0ED
:1016E000216B1129BCD0BFE7062000EAD91620687B
:1016F00006F1F0010161B91D204642462B4601F07A
:10170000EBFB0028C0D120685FFA89F10161204617
:10171000394642462B4601F0DFFB0028B4D10020B9
:101720000390206800224169434603918169039137
:101730000399016841F48071016020464FF0011166
:10174000009501F0E3FA002897D146F0F100A6E7F2
:101750002068016821F480610160EFF3108072B6A7
:1017600000200390206841690391816903910399E6
:10177000016841F40071016062B621E020680168EF
:1017800041F400610160EFF3108072B60020039015
:10179000206841690391816903910399016821F4EB
:1017A0008061016062B60BE02068016841F48061ED
:1017B00001600021039141690391806903900398BE
:1017C000208D002800F0CA8040F208094BF2895AA7
:1017D0000237C2F20009C1F2F84A23260EE000BF28
:1017E00010690870606A218D01306062481E208592
:1017F000618D01396185010400F0B08080B2032859
:101800000CD802282CD001284AD1204641462A462D
:1018100001F0CEFB002800F09C8035E720464146D1
:101820002A4601F0C5FB00287FF42EAF2068616ACC
:1018300000690870606A2268411C208D616201386D
:101840002085638D013B638553695B07D3D580B2E7
:101850000328C5D1106820F480601060C0E700BF85
:101860002046394600224346009501F04FFA0028F1
:101870007FF40AAFEFF3108072B62068616A0268E5
:1018800042F40072026000690870606A218D0130C4
:101890006062481E2085608D0138608562B658E020
:1018A0002046394600224346009501F02FFA0028D1
:1018B0007FF4EAAE2068016821F480610160EFF3F3
:1018C000108072B62068616A00690870606A218DB4
:1018D0000130013960622185618D01396185D9F856
:1018E0000010C908A1FB0A12110A71430291029962
:1018F00001390291029900293CD021684A695207B6
:1019000017D4029A013A0292029A9AB34A6952078C
:101910000FD4029A013A0292029A5AB34A695207C4
:1019200007D4029A013A0292029A1AB34A695207FC
:10193000DDD50A6842F400720A6009690170606AC4
:10194000218D01306062481E2085608D01386085E0
:1019500062B62068616A006943E700BF202084F80E
:101960003D00002084F83E0084F83C0004B0BDE84F
:10197000F08700BF00202021206384F83D1084F808
:101980003E00216C41F02001216462B684F83C00E5
:10199000012004B0BDE8F0872DE9F04383B01E4676
:1019A000174689460446FFF73FFD94F83D1020296D
:1019B00024D10546206800BF816989071AD5FFF741
:1019C00033FD411B20681A29F6D381698907F3D5B5
:1019D00000202021206384F83D1084F83E00216C13
:1019E00041F02001216484F83C00022003B0BDE8EE
:1019F000F08300BF94F83C10012903D1022003B00A
:101A0000BDE8F083012184F83C100168C90703D1C7
:101A1000016841F001010160016840F2020821F40F
:101A200000610160212184F83D10102184F83E10EE
:101A30000021216467626685618DC0F201082185FD
:101A4000A8F10211E162E16A0A9E11F5803F18BF18
:101A500001291DD1016841F48071016020464FF0D9
:101A6000011100223346009501F050F950B1206871
:101A70000068C00544BF4FF400702064012003B02B
:101A8000BDE8F0832069B0F5804F07D1FE2015E056
:101A90000829DFD0216B1229DCD0DFE7062000EA1D
:101AA000D9102168F030086108F10601204632465D
:101AB0002B4601F011FA0028E0D1FF20216800EA4E
:101AC000090008612046414632462B4601F004FADF
:101AD0000028D3D1002002902068416902918069DA
:101AE0000290029806E000BF204631462A4601F0E7
:101AF000AFF818BB208D68B3204631462A4601F066
:101B00009FFAD8B9606A2168024612F8013B0B615E
:101B10006262628D013A6285228D531E23854F6970
:101B20007F07E1D51B04DFD0437802300B61606290
:101B3000608D01386085901E2085D5E7206C0428D3
:101B40009CD12068016841F400710160012003B05C
:101B5000BDE8F0832068016841F400710160202035
:101B600084F83D00002084F83E0084F83C0003B077
:101B7000BDE8F08310B586B0016845F20040C4F2BC
:101B8000000081424FF00001CDE90411CDE90211BE
:101B900002D006B010BD00BF41F21804C4F2020426
:101BA000216800F5384041F008012160216801F00A
:101BB000080101910199C021029112210391032191
:101BC000059102A9FFF71AFB606840F400106060FD
:101BD000606800F400100190019806B010BD00008C
:101BE00040F2000040F2E411C2F20000C2F2000133
:101BF00000780A68104408607047000080B542F21F
:101C00000000C4F20200016841F0100101600320ED
:101C100000F07AF80F2000F005F800F027F8002017
:101C200080BD000070B540F20006C2F2000640F22E
:101C300008013278C2F200014FF47A730968B3FBED
:101C4000F2F20446B1FBF2F1084600F06DFE0F2CF3
:101C50004FF0010508D838B94FF0FF302146002277
:101C6000002500F025F87460284670BD82B041F26E
:101C70001800C4F202000168022241F00101016073
:101C8000016801F0010101910199416841F0805121
:101C90004160406800F08050009000980420C4F239
:101CA0000100016862F31A61016002B07047000030
:101CB00010B54EF60C5CCEF2000CDCF80030C3F32D
:101CC000022E8EF00704042C28BF0424BEF1030367
:101CD0004FF0FF3E0EFA04F438BF0023A1439940B1
:101CE0000EFA03F39A43114300F00F0200F1604330
:101CF0000901043A03F564436244002848BF02F135
:101D00000C03197010BD00004EF60C51CEF200010C
:101D10000A684FF6FF031A4060F30A2242F080601F
:101D200040F0FD7008607047012821D002280DD0D6
:101D3000102808D141F20401C4F202010A6851F8E6
:101D4000040CC00134D40020704700BF80B500F0FF
:101D5000DBF941F20401C4F2020109680222C1F375
:101D6000813102EB4101B0FBF1F0BDE880407047EA
:101D700041F20400C4F20200C16940F202320A409A
:101D8000B2F5817F04BF4FF40040704701F4407109
:101D9000B1F5407F18D0B1F5007F1CBF002070471F
:101DA000006A49F64041800701EAE070704700BFD1
:101DB000C2F3834015A3185CD2030DD440F6001281
:101DC000C0F23D02504313E050F8040C4FF224419E
:101DD000800301EAE07070470A6810A3C2F3404232
:101DE0009A5C41F20023C0F27A03B3FBF2F2504353
:101DF0000968490248BF70474AF6AB214000CAF65D
:101E0000AA21A0FB01014808704700BF0203040596
:101E1000060708090A0B0C0D0E0F10100102000036
:101E20002DE9F04182B00446007841F21C06C0075B
:101E3000C4F202064AD030685FEAC00808D43068AD
:101E400040F080503060306800F080500190019880
:101E500047F20007C4F200073868C00512D438689A
:101E600040F480703860FFF7DFFA05463868C00537
:101E700008D4FFF7D9FA401B6428F7D9032002B031
:101E8000BDE8F081706810F4407012D0616801F410
:101E9000407188420DD0706840F24042C4F2422244
:101EA000012320F4407113600023C00713607160A8
:101EB00026D17068616820F440700843B8F1000FC3
:101EC000706003D4306820F0805030602068810753
:101ED00007D556F8181CA26821F44041114346F872
:101EE000181CC00607D556F8180CE16820F48000CD
:101EF000084346F8180C002002B0BDE8F08100BF8E
:101F0000FFF792FA054641F2883700BF70688007F4
:101F1000CFD4FFF789FA401BB8424FF00300F5D940
:101F2000EAE70000002804BF012070472DE9F043D4
:101F300081B042F20008C4F202080446D8F800005A
:101F40000D4600F0070081420CD9D8F8000020F0BF
:101F500007002843C8F80000D8F8000000F0070088
:101F6000A8426CD1206841F204098107C4F2020939
:101F700017D5410705D5D9F8001041F4E061C9F83B
:101F80000010010705D5D9F8001041F46051C9F8D7
:101F90000010D9F80010A26821F0F0011143C9F82F
:101FA0000010C00742D1D8F8000000F007008542B9
:101FB0000CD2D8F8000020F007002843C8F8000031
:101FC000D8F8000000F00700A84238D12068410787
:101FD00007D5D9F80010E26821F4E0611143C9F88F
:101FE0000010000708D5D9F80000216920F46050DE
:101FF00040EAC100C9F80000D9F8002002F00C0046
:10200000082841F20020C0F27A004DD146F2DA638E
:10201000C2F38341C0F60003595CD20338D440F6C2
:102020000010C0F23D0048433EE000BF606859F830
:10203000041C022808D0012826D1890306D40120D7
:1020400001B0BDE8F08300BF8901F8D5D9F80010D0
:1020500021F003010843C9F80000FFF7E5F906463F
:1020600041F28837D9F80000616800F00C00B0EB4D
:10207000810F98D0FFF7D8F9801BB842F2D903201E
:1020800001B0BDE8F08300BF8907D8D5DEE700BF07
:10209000D9F8002046F2D863C2F34042C0F60003EC
:1020A0009A5C4843B0FBF2F0D9F8001046F2C062E7
:1020B000C1F30311C0F60002515C40F2080220FA9D
:1020C00001F140F20400C2F200000068C2F2000216
:1020D0001160FFF7A7FD002001B0BDE8F08300000C
:1020E00040F2080041F20401C2F20000C4F2020111
:1020F0000068096846F2D062C1F30221C0F600020E
:10210000515CC8407047000040F2080041F20401F1
:10211000C2F20000C4F202010068096846F2D0620F
:10212000C1F3C221C0F60002515CC84070470000F4
:10213000002804BF012070472DE9F04182B0044619
:10214000007841F20006C007C4F202060CD07068A5
:1021500000F00C00042840F081803068800303D533
:102160006068002800F04681207880071BD57068E1
:1021700010F00C0F09D0706800F00C00082840F037
:1021800087807068C00300F183803068800703D5C2
:102190002069012840F02E813068616920F0F80044
:1021A00040EAC10030602078000713D4207840074F
:1021B0002CD4E569002D00F01881706800F00C0047
:1021C000082840F0A780012D40F00481012002B0D2
:1021D000BDE8F081A069002800F084800020C4F2EE
:1021E00042200121C0F88014FFF71EF9054600BF08
:1021F000706A800700F1B280FFF716F9401B0228D1
:10220000F6D9032002B0BDE8F08100BFF0695FEAB3
:10221000C00808D4F06940F08050F061F06900F027
:1022200080500090009847F20007C4F20007386819
:10223000C00549D4386840F480703860FFF7F4F87E
:10224000054600BF3868C0053ED4FFF7EDF8401BD7
:102250006428F7D9032002B0BDE8F081706800F06F
:102260000C00082803D17068C0033FF576AF6168A1
:102270003068002900F00C81B1F5A02F00F000813A
:10228000B1F5803F40F01A8140F480301CE100BF7E
:102290002069002840F20000C4F2422000F088804B
:1022A00001210160FFF7C0F8054600BF30688007D4
:1022B0003FF572AFFFF7B8F8401B0228F6D90320AC
:1022C00002B0BDE8F08100BFE168306A002900F08B
:1022D0009D80052900F09280012940F0AF8040F0F8
:1022E0000100B1E00020C4F242200021C0F88014B7
:1022F000FFF79AF8054600BF706A80077FF556AF72
:10230000FFF792F8401B0228F6D9032002B0BDE87F
:10231000F08100BF0027C4F2422700203866FFF793
:1023200083F8022D05460DD13068800140F1DE8032
:10233000FFF77AF8401B02284FF00300F4D902B0EF
:10234000BDE8F081306880014FD5FFF76DF8401B84
:1023500002284FF00300F5D9F1E700BF40F2080072
:10236000C2F20000006844F6D351C1F26201A0FB42
:102370000101480A019000BF00BF0198411E0028DA
:1023800001913FF413AF00BF0198411E0028019155
:102390003FF40CAF00BF0198411E002801913FF4AB
:1023A00005AF00BF0198411E00280191E4D1FDE670
:1023B00000210160FFF738F8054600BF306880074C
:1023C0007FF5F1AEFFF730F8401B02284FF0030015
:1023D000F4D9B4E77068216A00F480328A4209D1E6
:1023E000616A00F47010884204D1002002B0BDE898
:1023F000F08100BF012002B0BDE8F08140F0040090
:102400003062306A40F001001EE000BF20F00100A1
:102410003062306A20F004003062FFF705F80546AC
:1024200041F28837306A800720D5FEF7FDFF401B58
:10243000B8424FF00300F5D981E700BF20F001005A
:102440003062306A20F004003062FEF7EDFF05468E
:1024500041F28837306A800708D4FEF7E5FF401B59
:10246000B842F7D9032002B0BDE8F081B8F1000FFF
:102470003FF59FAEF06920F08050F06199E600BF13
:1024800040F480203060306840F480301CE000BFB1
:1024900020F480303060306820F480203060FEF717
:1024A000C3FF0546306880037FF55EAEFEF7BCFFD4
:1024B000401B64284FF00300F4D940E720F480303B
:1024C0003060306820F480203060FEF7ADFF0546B4
:1024D000306880033FF548AEFEF7A6FF401B642836
:1024E000F6D9032002B0BDE8F08100BF206AB0F544
:1024F000803F05D17168A26821F4003111437160F9
:102500007168626A21F474111143084370600120FC
:102510003866FEF789FF0446306880013FF565AFF5
:10252000FEF782FF001B02284FF00300F4D906E7F4
:1025300070B528B1416A29B100210161142106E07A
:10254000012070BD4168B1F5827F02D01C210022BC
:1025500042500026866290F8511029B980F85060E8
:10256000054600F039F82846022180F8511090E81D
:102570002E0002F482720C6803F4044324F0400439
:102580000C601A4405F4006305691A4405F002035F
:1025900045691A4405F001038569C4691A4405F4C4
:1025A00000731A4404F03803046A1A4404F08003E8
:1025B000846A1A4304F400531A430A60042202EAAC
:1025C00015424A60CA6922F40062CA610121466567
:1025D00080F85110304670BD70B586B040F60004EA
:1025E000C4F20104006804F52051002688420596D3
:1025F000CDE90366029601D006B070BD41F2180025
:10260000C4F20200016802AD41F48051016001682A
:1026100001F4805101910199016841F004010160C8
:102620000068294600F0040001900198A020029063
:1026300002200390032005902046FEF7DFFD402096
:10264000CDE90206204629460496FEF7D7FD06B0DE
:1026500070BD00002DE9F04383B01E4615460F46BD
:102660000446FEF7E1FE94F851108146012909D194
:10267000002F4FF0010018BF002D0FD103B0BDE8AF
:10268000F08300BF6068B0F5827F0DD104294FF060
:102690000200F3D1A1680029EAD0EFE7002EEDD0C7
:1026A00094F85000012803D1022003B0BDE8F08364
:1026B000012084F8500094F85100002104281CBF28
:1026C000052084F851006165A563E687A687276326
:1026D000E6862068A686216461640168490603D401
:1026E000016841F0400101606168731EE268B1FA5F
:1026F00081F1B3FA83F3DDF8288049095B09B2F56B
:10270000006F41EA030165D131B137F8021BC160A6
:102710002763E08E0138E086012518F1010032D1EF
:1027200002E000BFFEF780FEE08E18B9E08F0028BF
:1027300000F0B8802068816889070CD5E18E51B11E
:10274000012D08D1216B002531F8022BC2602163D5
:10275000E18E0139E1868168C907E3D0E18F002964
:10276000E0D0C068A16B012521F8020BA163E08FC6
:102770000138E087D6E700BFFEF756FEA0EB090060
:10278000404580F0AF80E08E18B9E08F002800F05F
:1027900089802068816889070CD5E18E51B1012DAF
:1027A00008D1216B002531F8022BC2602163E18E34
:1027B0000139E1868168C907DED0E18F0029DBD0CD
:1027C000C068A16B012521F8020BA163E08F0138DD
:1027D000E087D1E739B139780173206B013020638C
:1027E000E08E0138E086012518F1010032D101E0C8
:1027F000FEF71AFEE08E10B9E08F002852D0206854
:10280000816889070ED5E18E61B1012D0AD1216B56
:10281000002509780173216B206801312163E18E65
:102820000139E1868168C907E2D0E18F0029DFD054
:10283000C068A16B01250870A06B0130A063E08F18
:102840000138E087D4E700BFFEF7EEFDA0EB0900FA
:10285000404547D2E08E08B9E08F18B32068816800
:1028600089070ED5E18E61B1012D0AD1216B0025BA
:1028700009780173216B206801312163E18E0139F0
:10288000E1868168C907DFD0E18F0029DCD0C0680C
:10289000A16B01250870A06B0130A063E08F0138A7
:1028A000E087D1E72046022101224346CDF800907F
:1028B00001F0DEF940B92046802100224346CDF8E0
:1028C000009001F0D5F9B8B1606D40F0200060656E
:1028D00020206065002084F85000012003B0BDE88E
:1028E000F08300BF012084F85100002084F85000DC
:1028F000032003B0BDE8F083A06838B9002002903F
:102900002068C1680291806802900298012084F8D2
:102910005100002084F85000606D002818BF01208D
:1029200003B0BDE8F0830000411E0020B0EB116F42
:102930001CBF012070474EF21002CEF2000251601F
:102940004EF62351CEF20001F0230B700721906068
:1029500011607047002804BF0120704710B504467D
:1029600090F8410028B9002084F84000204600F08B
:1029700063F8242084F841002068D4E90212C36877
:1029800023F40053C360036923F440531A430261E4
:10299000D4E904231143C268194341F20C639A43FA
:1029A0001143C1604169A26921F44071114343F6AA
:1029B0000002C4F201029042416103D0FFF790FB94
:1029C00002E000BFFFF7A0FBD4E900231921484330
:1029D0009900B0FBF1F048F21F5CC5F2EB1CA0FBC4
:1029E0000C314FF69C734909C0F6FF7301FB0300DD
:1029F000322303EB0010A0FB0C03F02000EA53107D
:102A000000EB0110C3F343110844906010692021CA
:102A100020F490401061506920F02A005061D06885
:102A200040F40050D0600020606484F8411084F8C5
:102A30004210606310BD000070B586B040F600041F
:102A4000C4F20104006804F540510026884205964E
:102A5000CDE90366029601D006B070BD41F21800C0
:102A6000C4F20200016802AD41F4804101600168D6
:102A700001F4804101910199016841F00401016074
:102A80000068294600F00400019001984FF400709E
:102A9000029002200390032005902046FEF7AEFB33
:102AA0004FF48060CDE90206204629460496FEF7E1
:102AB000A5FB06B070BD00002DE9F04381B00446CF
:102AC00090F84100202809D100294FF0010018BFDB
:102AD000002A07D101B0BDE8F08300BF022001B099
:102AE000BDE8F0830020606421201D460E4684F876
:102AF00041001746FEF798FCA784E784A168814649
:102B0000B1F5805F02D1206900285DD037460020F2
:102B1000E28C2168002A5DD06A1C24D0002D4AD0A6
:102B2000804600BF0868000608D4FEF77DFCA0EBD5
:102B30000900A8427AD82168C868F3E717B117F8E6
:102B4000010B04E038F8020B00276FF35F204860A8
:102B5000E08C0138E084E08C0028E3D13AE000BF4B
:102B60000A68120609D40A68120606D40A68120610
:102B70005CBF0A685FEA0262F2D51FB117F8012B49
:102B800005E000BF30F8022B00276FF35F224A6098
:102B9000E28C013AE284E28C002AE4D11AE000BF20
:102BA00030F8022B00276FF35F224A60E28C013A73
:102BB000E284E28C72B10A68120635D5002FEFD09C
:102BC00017F8012BF1E700BF00273046E28C21689F
:102BD000002AA1D1086840061ED42DB3681C14D168
:102BE000086840062AD40868400627D408684006CA
:102BF00024D4086840064FF00000F1D50DE000BF76
:102C00002068C1680068400618D4FEF70DFCA0EBF0
:102C10000900A842F4D909E00020202184F84110DD
:102C200001B0BDE8F08300BFFEF7FEFB03202021CA
:102C300084F8411001B0BDE8F08300BF00202021DE
:102C400084F8411001B0BDE8F0830000FEE7000009
:102C500070B50368044653F8140F400711D40E46AC
:102C6000481C29D086BB00BF1868400527D4FEF752
:102C7000DBFB236853F8140F400737D5186840076B
:102C8000F2D5002070BD00BF18684007F9D418685D
:102C9000400514D418684007F3D4186840050ED4D2
:102CA00018684007EDD41868400508D41868400734
:102CB0004FF0000048BF70BD18684005E4D56FF4C0
:102CC00080601860042012E0154603E053F8140FEA
:102CD0004007D6D418684005F1D4FEF7A5FB401B89
:102CE0002368B042F2D958694007EFD42020002170
:102CF0002022216384F83D2084F83E10226C10438A
:102D00002064012084F83C1070BD00002DE9F041E2
:102D1000054600681E46144601F47F0201338FB257
:102D200042D0DDF81880B2F5803F40F087804069DE
:102D30003840C01BB0FA80F04009844240F0C8809F
:102D40004EB924E040693840C01BB0FA80F0400919
:102D5000844240F0BD80FEF767FBA0EB08012868C5
:102D6000B142EFD941693940C91BB1FA81F1490932
:102D70008C42E7D19BE000BF40693840C01BB0FAED
:102D800080F0400984424FF0000040F0A280FEF73E
:102D90004BFB286841693940C91BB1FA81F14909E7
:102DA0008C42E9D183E000BFB2F5803F24D100BF5F
:102DB00041693940C91BB1FA81F149098C4240F09F
:102DC000878041693940C91BB1FA81F149098C42B8
:102DD00040F07E8041693940C91BB1FA81F149094F
:102DE0008C4275D141693940C91BB1FA81F1490959
:102DF0008C42DDD06CE000BF81693940C91BB1FA5B
:102E000081F149098C4263D181693940C91BB1FA0A
:102E100081F149098C425BD181693940C91BB1FA02
:102E200081F149098C4253D181693940C91BB1FAFA
:102E300081F149098C42DFD04AE000BF8069384007
:102E4000C01BB0FA80F04009844241D146B923E06A
:102E500080693840C01BB0FA80F04009844237D105
:102E6000FEF7E2FAA0EB08012868B142F0D98169C7
:102E70003940C91BB1FA81F149098C42E8D116E009
:102E800080693840C01BB0FA80F0400984424FF09E
:102E9000000018BFBDE8F081FEF7C6FA2868816916
:102EA0003940C91BB1FA81F149098C42E8D10020AF
:102EB0002021286385F83D1085F83E00296C41F0FB
:102EC0002001296485F83C000120BDE8F08100BFA5
:102ED0000020BDE8F0810000F0B581B00446006834
:102EE0001D4643698FB203EA0701B94202D10020AF
:102EF00001B0F0BD4169164601323CD0490512D4FB
:102F00007EB300BFFEF790FA411B2068B14203D99F
:102F100041693940B9422BD141693940B942E6D0C3
:102F200041694905EED5016841F4007101606FF413
:102F300080614161042000212022216384F83D202A
:102F400084F83E10226C1043206484F83C10012069
:102F500001B0F0BD41693940B942C8D04169490565
:102F6000E1D4FEF761FA206841693940B942F1D0F5
:102F70002020E0E741694905D5D441693940B9428B
:102F8000B5D041694905CED441693940B942AED086
:102F900041694905C7D441693940B942A7D041695F
:102FA0004905C0D441693940B942E3D19FE70000E7
:102FB00070B504460068154650F8143F5A063DD4D3
:102FC0000E4629B926E000BF50F8141F490635D433
:102FD0000168C90621D4FEF727FA411B2068B142D7
:102FE000F2D941694906EFD400202021206384F8FA
:102FF0003D1084F83E00206C40F0200018E000BF37
:10300000FEF712FA206850F8141F4906ECD5016843
:10301000490613D40168C906F2D56FF010010160AA
:1030200000202021206384F83D1084F83E00206CAD
:103030002064002084F83C00012070BD002070BD99
:1030400070B50368044653F8140F000611D40E46F9
:10305000481C29D086BB00BF1868400527D4FEF75E
:10306000E3F9236853F8140F000637D518680006F3
:10307000F2D5002070BD00BF18680006F9D41868AA
:10308000400514D418680006F3D4186840050ED41F
:1030900018680006EDD41868400508D418680006C2
:1030A0004FF0000048BF70BD18684005E4D56FF4CC
:1030B00080601860042012E0154603E053F8140FF6
:1030C0000006D6D418684005F1D4FEF7ADF9401BD0
:1030D0002368B042F2D958690006EFD420200021BD
:1030E0002022216384F83D2084F83E10226C104396
:1030F0002064012084F83C1070BD00002DE9F04FE1
:1031000083B040F6000BC4F2010B58461021002298
:103110000024FEF783F940F24416C020C2F20006F4
:103120008DF80B004FF0FF370DF10B010DF10A0286
:10313000304601238DF80A400097FFF78BFA584676
:1031400010210122FEF76AF90A20FEF743F85846DB
:1031500010210022FEF762F94FF003080DF10B0178
:103160000DF10A02304601238DF80B808DF80A40DC
:103170000097FFF76FFA4FF00E090DF10B010DF1FB
:103180000A02304601238DF80B908DF80A40009713
:10319000FFF760FA0DF10B010DF10A023046012331
:1031A0008DF80B408DF80A400097FFF753FA9DF811
:1031B0000A60584610210122FEF730F906F0E000BF
:1031C000802840F03A81584610210022FEF726F967
:1031D00040F24416C2F200064FF0020A0DF10B0154
:1031E0000DF10A02304601238DF80BA08DF80A403C
:1031F0000097FFF72FFA2A208DF80B000DF10B0135
:103200000DF10A02304601238DF80A400097FFF7BE
:1032100021FA0DF10B010DF10A02304601238DF860
:103220000B408DF80A400097FFF714FA584610211A
:103230000122FEF7F3F8584610210022FEF7EEF8BF
:103240000DF10B010DF10A02304601238DF80BA0A0
:103250008DF80A400097FFF7FDF929208DF80B0043
:103260000DF10B010DF10A02304601238DF80A40E1
:103270000097FFF7EFF990208DF80B000DF10B018F
:103280000DF10A02304601238DF80A400097FFF73E
:10329000E1F9584610210122FEF7C0F858461021E6
:1032A0000022FEF7BBF80DF10B010DF10A023046CA
:1032B00001238DF80BA08DF80A400097FFF7CAF99B
:1032C00028208DF80B000DF10B010DF10A0230469C
:1032D00001238DF80A400097FFF7BCF90DF10B01AF
:1032E0000DF10A02304601238DF80BA08DF80A403B
:1032F0000097FFF7AFF9584610210122FEF78EF82C
:10330000584610210022FEF789F80DF10B010DF14E
:103310000A02304601238DF80BA08DF80A40009771
:10332000FFF798F960250DF10B010DF10A02304607
:1033300001238DF80B508DF80A400097FFF78AF9AA
:103340000DF10B010DF10A02304601238DF80B50EF
:103350008DF80A400097FFF77DF9584610210122A9
:10336000FEF75CF8584610210022FEF757F80DF1E1
:103370000B010DF10A02304601238DF80BA08DF8E8
:103380000A400097FFF766F92B208DF80B000DF12E
:103390000B010DF10A02304601238DF80A40009717
:1033A000FFF758F90DF10B010DF10A023046012328
:1033B0008DF80B408DF80A400097FFF74BF95846FF
:1033C00010210122FEF72AF8002000F03BF85846B1
:1033D00010210022FEF722F80DF10B010DF10A0277
:1033E000304601238DF80B808DF80A400097FFF7D7
:1033F00031F90DF10B010DF10A02304601238DF870
:103400000B908DF80A400097FFF724F90DF10B019E
:103410000DF10A02304601238DF80B408DF80A4069
:103420000097FFF717F99DF80A505846102101221E
:10343000FDF7F4FF202D38BF0124204603B0BDE87E
:10344000F08F00002DE9F04184B040F60008C4F28E
:10345000010805464046102100220024FDF7DEFF4A
:1034600040F244160520C2F200068DF809004FF024
:10347000FF370DF1090102AA304601238DF80840FB
:103480000097FFF7E7F80F208DF80B000DF10B0107
:103490000DF10A02304601238DF80A400097FFF72C
:1034A000D9F8E0208DF80D000DF10D0103AA30468A
:1034B00001238DF80C400097FFF7CCF80DF10F01B8
:1034C0000DF10E02304601238DF80F508DF80E409D
:1034D0000097FFF7BFF8404610210122FDF79EFF3D
:1034E0000A20FDF777FE04B0BDE8F0812DE9F04F2A
:1034F00083B040F60009C4F2010901928B460446EC
:1035000008290E464FEAD00548464FF010014FF00B
:10351000000228BF08264FF00008FDF77FFF40F2A9
:1035200044170220C2F200078DF80B004FF0FF3A5B
:103530000DF10B010DF10A02384601238DF80A80C6
:10354000CDF800A0FFF786F831208DF80B000DF1C3
:103550000B010DF10A02384601238DF80A80CDF8DF
:1035600000A0FFF777F80DF10B010DF10A023846C4
:1035700001238DF80B508DF80A80CDF800A0FFF7DD
:1035800069F8484610210122FDF748FF48461021FE
:1035900000226401FDF742FF02208DF80B000DF1BF
:1035A0000B010DF10A02384601238DF80A80CDF88F
:1035B00000A0FFF74FF832208DF80B000DF10B0142
:1035C0000DF10A02384601238DF80A80CDF800A0DB
:1035D000FFF740F80DF10B010DF10A023846012307
:1035E0008DF80B4002248DF80A80CDF800A0FFF77B
:1035F00031F8484610210122FDF710FF48461021FE
:103600000022FDF70BFF0DF10B010DF10A02384608
:1036100001238DF80B408DF80A80CDF800A0FFF74C
:1036200019F835208DF80B000DF10B010DF10A0290
:1036300038460123CDF800A0DDF804A08DF80A80FB
:10364000FFF708F88DF80B600DF10B010DF10A0280
:1036500038464FF0FF3601238DF80A800027009688
:10366000FEF7F8FF484610210122FDF7D7FEBBF117
:10367000000F00F0F8819AF800504846102100220F
:10368000FDF7CCFE8DF80B4040F24414C2F200046A
:103690000DF10B010DF10A02204601238DF80A708D
:1036A0000096FEF7D7FF36208DF80B000DF10B01C9
:1036B0000DF10A02204601238DF80A700096FEF7EC
:1036C000C9FF0DF10B010DF10A02204601238DF80F
:1036D0000B508DF80A700096FEF7BCFF484610218B
:1036E0000122FDF79BFEBBF1010F00F0BC819AF8AF
:1036F00001704846102100220026FDF78FFE40F29F
:103700004414C2F200044FF002084FF0FF350DF1EF
:103710000B010DF10A02204601238DF80B808DF874
:103720000A600095FEF796FF37208DF80B000DF12B
:103730000B010DF10A02204601238DF80A60009565
:10374000FEF788FF0DF10B010DF10A02204601235F
:103750008DF80B708DF80A600095FEF77BFF4846E8
:1037600010210122FDF75AFEBBF1020F4FF00007B6
:1037700000F079819AF80270484610210022FDF786
:103780004DFE40F24414C2F200040DF10B010DF1A4
:103790000A02204601238DF80B808DF80A600095FF
:1037A000FEF758FF38208DF80B000DF10B010DF1DD
:1037B0000A02204601238DF80A600095FEF74AFFB1
:1037C0000DF10B010DF10A02204601238DF80B705B
:1037D0008DF80A600095FEF73DFF48461021012252
:1037E000FDF71CFEBBF1030F4FF0000700F03B811B
:1037F0009AF803704846102100220026FDF70EFEBD
:1038000040F24414C2F200044FF002084FF0FF35BA
:103810000DF10B010DF10A02204601238DF80B80FA
:103820008DF80A600095FEF715FF39208DF80B0022
:103830000DF10B010DF10A02204601238DF80A60FB
:103840000095FEF707FF0DF10B010DF10A0220466E
:1038500001238DF80B708DF80A600095FEF7FAFED3
:10386000484610210122FDF7D9FDBBF1040F4FF0AE
:10387000000700F0F8809AF80470484610210022F2
:10388000FDF7CCFD40F24414C2F200040DF10B012F
:103890000DF10A02204601238DF80B808DF80A6095
:1038A0000095FEF7D7FE3A208DF80B000DF10B01C5
:1038B0000DF10A02204601238DF80A600095FEF7FB
:1038C000C9FE0DF10B010DF10A02204601238DF80E
:1038D0000B708DF80A600095FEF7BCFE484610217B
:1038E0000122FDF79BFDBBF1050F4FF0000700F033
:1038F000BA809AF805704846102100220026FDF78C
:103900008DFD40F24414C2F200044FF002084FF063
:10391000FF350DF10B010DF10A02204601238DF850
:103920000B808DF80A600095FEF794FE3B208DF821
:103930000B000DF10B010DF10A02204601238DF859
:103940000A600095FEF786FE0DF10B010DF10A02EB
:10395000204601238DF80B7000278DF80A60009532
:10396000FEF778FE484610210122FDF757FDBBF116
:10397000060F78D09AF80670484610210022FDF70D
:103980004DFD40F24414C2F200040DF10B010DF1A3
:103990000A02204601238DF80B808DF80A600095FD
:1039A000FEF758FE3C208DF80B000DF10B010DF1D8
:1039B0000A02204601238DF80A600095FEF74AFEB0
:1039C0000DF10B010DF10A02204601238DF80B7059
:1039D00000278DF80A600095FEF73CFE484610214E
:1039E0000122FDF71BFDBBF1070F3CD09AF80750F1
:1039F0004846102100220027FDF710FD40F2441434
:103A00000220C2F200048DF80B004FF0FF360DF1DA
:103A10000B010DF10A02204601238DF80A70009671
:103A2000FEF718FE3D208DF80B000DF10B010DF196
:103A30000A02204601238DF80A700096FEF70AFE5E
:103A40000DF10B010DF10A02204601238DF80B50F8
:103A50008DF80A7000270096FEF7FCFD48461021FD
:103A60000122FDF7DBFC484610210022FDF7D6FCC1
:103A700040F244150520C2F200058DF80B000DF14F
:103A80000B014FF0FF340DF10A02284601238DF897
:103A90000A700094FEF7DEFD30260DF10B010DF1EA
:103AA0000A02284601238DF80B608DF80A700094F5
:103AB000FEF7D0FD0DF10B010DF10A02284601239E
:103AC0008DF80B608DF80A700094FEF7C3FD0DF1C0
:103AD0000B010DF10A02284601238DF80B708DF8B9
:103AE0000A700094FEF7B6FD484610210122FDF74A
:103AF00095FC484610210022FDF790FC81208DF8AE
:103B00000B000DF10B010DF10A02284601238DF87F
:103B10000A700094FEF79EFD484610210122FDF731
:103B20007DFC40F6000B40F244174FF06308C4F2EE
:103B3000010B0026C2F200074FF0010A584610217F
:103B40000022FDF76BFC03200DF10B050DF10A04BB
:103B50008DF80B004FF0FF393846294622460123E5
:103B60008DF80A60CDF80090FEF774FD30208DF8D6
:103B70000B0038462946224601238DF80A60CDF80D
:103B80000090FEF767FD38462946224601238DF84E
:103B90000B608DF80A60CDF80090FEF75BFD9DF894
:103BA0000A90584610210122FDF738FC5FEA09709F
:103BB00054D50120FDF70EFB5FEA0860A8F101086B
:103BC000BCD140F60007C4F201073846102100229C
:103BD0004FF0000AFDF722FC40F244150520C2F226
:103BE00000058DF80B004FF0FF360DF10B010DF1C4
:103BF0000A02284601238DF80AA00096FEF72AFD46
:103C000030208DF80B000DF10B010DF10A02284652
:103C100001238DF80AA00096FEF71CFD08208DF800
:103C20000B000DF10B010DF10A02284601238DF85E
:103C30000AA00096FEF70EFD0DF10B010DF10A0230
:103C4000284601238DF80BA08DF80AA00096FEF7F8
:103C500001FD384610210122FDF7E0FB504603B07C
:103C6000BDE8F08FFEE70000FEE7000070470000AF
:103C70002DE9F04381B0089C984615460E468146D2
:103C8000FDF7D2FB201A00EB0804FDF7CDFB40F254
:103C90000801C2F200010968C1F3CB316143009110
:103CA000D9F800108A683240921BB2FA82F25209A7
:103CB00095423DD0074618F1010031D0FDF7B4FB25
:103CC000C01BA04238D2009800990028A1F1010140
:103CD0000091D9F80010896808BF044601EA06007F
:103CE000801BB0FA80F040098542E7D120E000BF98
:103CF00088683040801BB0FA80F04009854217D0B8
:103D000088683040801BB0FA80F0400985420FD0AF
:103D100088683040801BB0FA80F04009854207D0A7
:103D200088683040801BB0FA80F040098542DFD1BE
:103D3000002001B0BDE8F083D9E900014268B1F587
:103D4000827F22F0E00242600BD1D9F80810B1F571
:103D5000004F02D0B1F5806F03D1016821F040011E
:103D60000160D9F82810B1F5005F07D1016821F48E
:103D700000510160016841F400510160012089F89F
:103D80005100002089F85000032001B0BDE8F08305
:103D900070470000FDF724BF70470000FEE70000F9
:103DA000DCB0FDF72BFF00240120CDE92144CDE953
:103DB0001F441C9020904FF4E0104FF480310225F6
:103DC00025901CA81594CDE91344CDE91D14CDE927
:103DD0002351FEF7ADF928B1EFF3108072B600BFA2
:103DE000FEE700BF0F20CDE916054FF48060CDE956
:103DF000190416A802211894FEF794F820B1EFF3E5
:103E0000108072B6FEE700BF4FF400400226149007
:103E100012A81296FEF704F820B1EFF3108072B6E4
:103E2000FEE700BF002741F21800CDE91E77CDE97B
:103E30001C77C4F20200016841F2000541F0100154
:103E400001600168C4F2010501F010011691169994
:103E50000168002241F02001016001684FF400591F
:103E600001F0200116911699016841F004010160EA
:103E7000016801F0040116911699016841F00801EA
:103E8000016000684FF4005100F008001690169889
:103E90002846FDF7C3FAA5F500642046102101224B
:103EA0004FF0100A4FF00108FDF7B8FAA5F5806B46
:103EB000584601210122FDF7B1FACDE91E761CAE6C
:103EC00028463146CDE91C98FDF798F94FF00309D3
:103ED00020463146CDE91CA81E97CDF87C90FDF711
:103EE0008DF958463146CDE91C88CDE91E79FDF79C
:103EF00085F940F27004C2F2000405F5A051204695
:103F000040F8101F4FF4602107730775C161C0E9C5
:103F10000177C0F81080FCF79DFE28B1EFF3108008
:103F200072B600BFFEE700BF072004F110061E9026
:103F30001CA93046CDE91C78FCF7E8FD20B1EFF371
:103F4000108072B6FEE700BF40F2F000A5F53C41DC
:103F5000C2F2000048F2A06200244FF48043C0F295
:103F6000010280E81600C0E90343C0E90544C0E946
:103F70000744FDF75FFA28B1EFF3108072B600BF77
:103F8000FEE700BF40F2441005F50051C2F2000008
:103F90004FF482724FF40073182780E816000A214C
:103FA000C0E90344C0E90543C761C0E90844C0E96A
:103FB0000A41FEF7BDFA28B1EFF3108072B600BFD8
:103FC000FEE700BF40F29C1005F52051C2F2000050
:103FD00000240C234FF4E13280E81600C0E90344CA
:103FE000C0E90534C461FEF7B5FC28B1EFF31080D9
:103FF00072B600BFFEE700BF4EF6FC50CEF20000E6
:10400000016841F2040ACEF2000A41F080710160B9
:10401000CAF800405AF8040C40F001004AF8040CB9
:10402000FCF786FCA0B140F29C10C2F200000FF237
:10403000486112226423FEF73FFD00BF28464FF47B
:104040000051FDF7E3F9C820FDF7C4F8F6E700BF1B
:1040500040F29C10C2F200000FF230611022642383
:10406000FEF72AFDFCF7BCFBA0B140F29C10C2F2A7
:1040700000000FF22C6111226423FEF71DFD00BF2A
:1040800028464FF40051FDF7C1F94FF4FA70FDF7DF
:10409000A1F8F5E740F29C10C2F200000FF21461A3
:1040A0000F226423CDF838B0FEF706FDFFF726F89F
:1040B000012840F0CF8240F29C14C2F200040FF2BB
:1040C0001861204611226423FEF7F6FC0FF21C61F2
:1040D00020461E226423FEF7EFFC16A802301CAF18
:1040E00011901AE040F29C1046F21871C2F20000E2
:1040F000C0F6000112226423FEF7DEFC1CAF40F282
:104100009C10C2F200000FF2086105226423FEF742
:10411000D3FC4FF47A70FDF75DF80E9D012128461F
:104120000022FDF77BF940F20801C2F20001DAF843
:10413000000009684DF68362C4F21B32A1FB021233
:10414000910C4FF48C7240F270095143C2F2000995
:104150004FF001084FF0070BDAF80020121A8A42DC
:104160000ED2DAF80020121A8A4209D2DAF80020B8
:10417000121A8A4204D2DAF80020121A8A42EBD3C9
:1041800000241CA880E8100930463946FCF7BEFC24
:104190003046FCF777FF30460A21FCF73BFE18B9A2
:1041A0003046FCF753FD04463046FCF7D3FF284663
:1041B00001210122FDF732F940F20801C2F20001AB
:1041C000DAF8000009684DF68362C4F21B32A1FBE5
:1041D0000212910C42F2F852514300BFDAF800206B
:1041E000121A8A420ED2DAF80020121A8A4209D232
:1041F000DAF80020121A8A4204D2DAF80020121AE1
:104200008A42EBD3484620F8104B3946CDE91C884A
:10421000CDF878B0FCF77AFC0024142508E000BF44
:104220003046FCF797FF0520FCF7D4FF013D0DD089
:104230003046FCF727FF30460A21FCF7EBFD00284B
:10424000EED13046FCF702FD0444E9E74CF6CD40E0
:10425000CCF6CC40A4FB00010809A9F8020002201A
:104260001CA981E8010930463946FCF74FFC0024BF
:10427000142507E03046FCF76DFF0520FCF7AAFF88
:10428000013D0DD03046FCF7FDFE30460A21FCF71B
:10429000C1FD0028EED13046FCF7D8FC0444E9E724
:1042A0004CF6CD40CCF6CC40A4FB00010809A9F89F
:1042B000040009F10600FCF7A7FB01280BD140F22E
:1042C0009C1046F22B71C2F20000C0F600011322CE
:1042D0006423FEF7F1FB09F10A00FCF7CFFA40F284
:1042E000B008B9F90A20B9F80C30C2F2000846F259
:1042F00059714046C0F60001FBF784FF4046FCF7C9
:10430000B5F840F29C14C2F2000482B22046414645
:104310006423FEF7D1FBB9F80620B9F8083046F25D
:104320003F714046C0F60001FBF76CFF4046FCF7CA
:104330009DF882B2204641466423FEF7BDFBB9F8E2
:104340000A0046F2676201B251438A1402EBD1724D
:1043500002EB8201A0EB4100B9F80C1003B288B265
:104360004CF6CD477843C70C07EB8700A1EB400024
:1043700046F2EA6185B24046C0F60001CDE900751B
:10438000FBF740FF4046FCF771F882B220464146F9
:104390006423FEF791FBB9F80020B9F80230B9F8B0
:1043A000047046F274714046C0F600010097FBF7B6
:1043B00029FF4046FCF75AF882B220464146642362
:1043C000FEF77AFBB9F8000001F0F4FE44F2670151
:1043D000C3F6532101F06AFF014601F029FD0021D7
:1043E000804601F0AAFD002818BF4FF00008B9F878
:1043F000020001F0DFFE4FF07E51044601F09DFD0A
:1044000048F20001002818BF4FF07E542046C4F245
:10441000224101F0A5FD01F0DFFC4DF645134FF000
:104420004042C4F2000300F009FA00230022C4F263
:10443000080301F0BDF900F01DFF0021044601F062
:104440007CFD42F20001002818BF00242046C4F27F
:104450008F4101F02BFFB9F804108346084601F0A4
:10446000A9FE48F20001CCF26D4101F0E1FC00210F
:10447000C4F2203101F01AFF4CF20001C4F2C14134
:1044800001F06EFD0021C4F2202101F0D1FC0021D9
:10449000814601F052FD0028404618BF4FF0000948
:1044A00001F054FE0F9001F06DFE0146404601F010
:1044B000C9FF0021C4F27A4101F0F8FE01F046FE86
:1044C000002848BF4042109000245846C4F22014EF
:1044D00001F03CFE074601F055FE0146584601F04A
:1044E000B1FF214601F0E2FE01F030FE80460028D7
:1044F000484648BFC8F1000801F028FE834601F095
:1045000041FE0146484601F09DFF214601F0CEFEE6
:1045100001F01CFE40F27005C2F20005002848BF01
:1045200040426989B9460BB246F267677B439F14E4
:1045300007EBD37303EB8307A1EB4701AF89B5F812
:1045400006C02A89BCB24CF6CD456C43E40C04EBA2
:104550008405DDF83CE009B2A7EB4507CDE9082367
:104560000AAABFB292C20021CDE9001E10991CAF69
:1045700046F29C72CDE90219069038464FF48071DC
:10458000C0F600025523CDE9048BCDF81CC0FBF723
:104590004DFE40F29C14C2F2000446F29071204697
:1045A000C0F600010B226423FEF786FA3846FBF7BB
:1045B0005DFF82B2204639466423FEF77DFA20462D
:1045C00052A102226423FEF777FA3846FBF74EFF2A
:1045D0005FFA80F88146A8F1FB0010F1FA0F0DF1A7
:1045E000580BFFF48CAD0020002700250021CDE9F9
:1045F0001611A9EB0701CCB2F9B2062C8DF8585070
:1046000028BF062488458DF8599008D01CA901229E
:104610000144012C88BF22461198FBF746FF40F267
:10462000555008215A46FEF761FF00283FF45AAD65
:10463000052027440135FCF7CDFDF8B28045D5D8DB
:1046400040F29C1046F20771C2F20000C0F6000171
:10465000102250E540F29C10C2F2000019A1132272
:104660006423FEF729FA28464FF40051FCF7CEFEEA
:104670006420FCF7AFFDF6E7454E53313630204954
:104680004E4954204641494C0D0A0000454E5331D5
:10469000363020494E4954204F4B0D0A000000008F
:1046A000414854323120494E4954204641494C0D2D
:1046B0000A000000414854323120494E4954204FED
:1046C0004B0D0A004D43503235313520494E495487
:1046D000204641494C0D0A004D43503235313520BA
:1046E000494E4954204F4B0D0A0000002D2D2D201E
:1046F0004261742064617520646F632063616D2082
:104700006269656E202D2D2D0D0A00000D0A000036
:104710002D2D2D0D0A000000490050EAC12018BFC0
:1047200004204A0D18BF40F0010040F2FF72B2EBC6
:10473000515F08BF40F00200012808BF0520704704
:104740002DE9F0414F1E00EBC7010446D1E90001FD
:1047500015461E4637F006020DD02A46334601F0B4
:1047600027F87F1E04EBC703D3E9002300F0B4FD54
:1047700037F00602F1D1022F25D0042F13D0062FD7
:1047800018BFBDE8F0812A46334601F011F8D4E99C
:104790000A2300F0A1FD2A46334601F009F8D4E9C6
:1047A000082300F099FD2A46334601F001F8D4E9C8
:1047B000062300F091FD2A46334600F0F9FFD4E9C4
:1047C000042300F089FD2A46334600F0F1FFD4E9C6
:1047D000022300F081FD2A46334600F0E9FFD4E9C8
:1047E0000023BDE8F04100F077BD00000022134631
:1047F0001046014900F02CBE0000F03F00F06CBDF7
:10480000002213461046114600F022BE40F201324B
:1048100000204FF0E04101F0BCBE0000024A002041
:10482000110701F0B6BE000001FDFFFF30380A2875
:1048300001D2012070470020704700002DE9F04DA3
:104840001D460C4694B0174621F0004123F000436A
:10485000002814BF4FF0010C4FF0000C0CEB440C7F
:10486000FB4A0CEB02064FEA620C66452BD33E0076
:1048700018BF012606EB45061644F64A964222D397
:10488000F54A53EA070C02D0944205D148B914B056
:1048900000201146BDE8F08D002808BF4FF0000C45
:1048A00001D04FF0010C0CEB440212F5001F0AD8A6
:1048B000002F14BF4FF0010C4FF0000C0CEB450221
:1048C00012F5001F07D914B03A462B462146BDE821
:1048D000F04DFFF793BF0022DFF880A3002CB8BF94
:1048E000534526DADFF878C36345A8BF022220DAF1
:1048F000DFF864C39C451CDCDFF868C30CEB235C69
:10490000BCF1140F08DDCCF1340627FA06FC0CFAD2
:1049100006F6BE420DD108E05FB9CCF1140623FAC9
:1049200006FC0CFA06F69E4203D10CF00102C2F11D
:10493000020251EA000C19D1002D17DA002C18BF21
:10494000022A01D0012A07D00220FBF7FBFD14B098
:10495000BDE8F04DFFF74ABF0220FBF7F3FDFFF77C
:1049600045FF14B081F00041BDE8F08DB7F1000CB7
:104970006CD1534525D104F1804212F5801201BF5C
:1049800000280020B44914B008BFBDE8F08DB2483B
:10499000884207DC002DA1BF6046294614B0BDE85F
:1049A000F08D07E0002DBFBF604685F0004114B0D8
:1049B000BDE8F08DAC497944D1E9000114B0BDE8FF
:1049C000F08DDFF894C2634525D1002D1FDA19B1AF
:1049D000514512D1D8B909E0002840F0F6829F4A2B
:1049E000214614B062F31E01BDE8F08D002021467F
:1049F00014B060F31E01BDE8F08D08DA14B0234650
:104A0000BDE8F04D02460020614600F021BD14B023
:104A10002146BDE8F08D514518DAB5F1804F0DD033
:104A2000A5F1005CBCF1FF5C10D1B4F1000C0DDB12
:104A300014B06146BDE8F04D00F0F6BB234614B05B
:104A40000246BDE8F04D194600F0B2BE060024F063
:104A5000004C3BD1D9B1514533D1002C06DD002D9E
:104A6000A1BF0020514614B0BDE8F08D002C01DD3F
:104A7000002D1BDB002C13DA002D11DB012A4FF077
:104A8000000014BF7549794914B0BDE8F08D022AC1
:104A900018BF002C0AD0012A08D1002C06DA0AE03F
:104AA000002CB8BF002D11DA012A04D0002014B068
:104AB0000146BDE8F08D14B000204FF00041BDE884
:104AC000F08DA1F14050B0F17F601AD0012000EBD1
:104AD000E47050EA020421D05F4C521E4FF0000BEC
:104AE000104304BF4FF0000B614C624883427DDDF0
:104AF000614A6248934229DD884217DB002D2FDB93
:104B000041E0002C00DA4AB1022A0CBF01204FF02C
:104B1000FF3014B0BDE8F04D00F0F6BD0120FBF70A
:104B200011FD14B0BDE8F04DFFF76ABE4A4A8A4253
:104B30000CDC002D14DC0220FBF704FDFFF76EFEF9
:104B400061F31E0414B02146BDE8F08D814202DA03
:104B5000002D18DA04E0404B994220DD002D12DDD3
:104B60000220FBF7EFFCFFF751FE05460E46002240
:104B700053465846214600F01BFE14B066F31E0152
:104B80002846BDE8F08D0220FBF7DCFCFFF746FE6F
:104B90000A46214614B062F31E01BDE8F08D0022E2
:104BA0003046614601F02AF8064688466FF0010259
:104BB00001F0EFFC4FF05532314B00F02DFF324643
:104BC000434600F0F5FD00222E4B00F025FF8A46FB
:104BD0003246434602901046194600F0E9FD53461E
:104BE000029A00F0E5FD8246324600E054E005916D
:104BF00043464FF0C040244900F0DAFDCDE90C01F6
:104C0000224A214B5046059900F0D2FD824601917F
:104C10001F4A204B3046414600F0CAFD5246019BD8
:104C200000F0ECFF82460B4602460991DDE90C01DB
:104C300000F052FBDDE90C2300268846304600F0E8
:104C4000DDFF5246099B00F0E7FE024600F07EB908
:104C5000FFFF1F00FFFF0F000000F03F0000F07F8C
:104C60000000404301FCFFFFFE1C00000000F0FFBD
:104C70000000F0BF0000E0410000F043FFFFEF3F05
:104C80005555D53F0000E03F4715F73FFE822B65A5
:104C900044DF5DF80BAE543E0020B1F5801F07DA0B
:104CA00035223046614601F074FC06466FF0340050
:104CB00000EB2150A0F2FF300190C1F3130040F04F
:104CC0007F6141F040510291FE498842D8BF0020E7
:104CD00004DDFD498142C8BF012001DD0F9008E0DD
:104CE00000200F900198401C01900298A0F58010C0
:104CF00002900299F548784405910F9900EBC100A4
:104D00001290D0E900233046059900F077FFCDE9F5
:104D10000C011298D0E900233046059900F0DCFA26
:104D200002460B460020EA4900F092FB0B46CDE913
:104D300008010246DDE90C0100F03AFD0A90E54861
:104D40008A464FF0000878440299006810904FF0AE
:104D5000005040EA61010F9801EB804000F500210E
:104D600012981191D0E90023109800F047FF3246C5
:104D7000059B00F051FE4246534600F019FDDDE967
:104D80001023064603914046514600F011FDDDE92F
:104D90000C2300F041FE3246039B00F02FFFDDE9BB
:104DA000082300F005FD03910A9A1290534610461D
:104DB000194600F0FDFC06460246C7480B46029124
:104DC00006217844FFF7BCFC029B3246059108900F
:104DD0001046194600F0ECFC059B089A00F0E8FC30
:104DE000064609915346404619460A9A00F074FA5D
:104DF000039B129A00F0DCFC3246099B00F06CFA2F
:104E0000CDE90801424653461046194600F0D0FC51
:104E100002460B46029104900020B04900F05CFA73
:104E2000DDE9082300F058FA0E464246AB4B4046F7
:104E300000F0E4FE029B049A00F0E0FEDDE90823A6
:104E400000F0EAFD42460491029033461046514676
:104E500000F0AEFCCDE90C0153460A9A0499029881
:104E600000F0A6FC82460091334642460399129810
:104E700000F09EFC5246009B00F02EFA82460B4644
:104E800002460991DDE90C0100F026FADDE90C2368
:104E900000268846304600F0B1FE5246099B00F0DD
:104EA000BBFDCDE90801434632464FF060408C49D6
:104EB00000F07EFC82460491DDE90801894A884BB6
:104EC00000F076FC029100904346324686488749BE
:104ED00000F06EFC029B009A00F0FEF9844B7B44CC
:104EE0000F9A03EBC203D3E9002300F0F5F9009019
:104EF0000291019800F008FC0E9003915046029B2D
:104F0000009A049900F0E8F97A4A7A440F9B02EB80
:104F1000C3030993D3E9002300F0DEF9039B0E9A43
:104F200000F0DAF988463046039B0E9A00F066FEE0
:104F3000099BD3E9002300F061FE5246049B00F078
:104F40005DFE029B009A00F067FD024600200B46C2
:104F500002903846294600F02BFC824603912B46EE
:104F600038461946029A00F049FE3246434600F0A0
:104F70001FFC5246039B00F0AFF907468A463246B3
:104F800043462946029800F013FC05460E463A4671
:104F9000534600F0A1F9584A8846914221DBA8EB1C
:104FA000020353EA000210D12A46334600F026FEDF
:104FB000CDE90310514A524B3846514600F08CF966
:104FC000DDE9033200F0F2FC21D20220FBF7BAFA4D
:104FD000FFF71CFC0A46214614B062F31E01BDE82F
:104FE000F08D484B28F000429A4210D3464A08EB15
:104FF000020353EA00027FF4C6AD2A46334600F0AE
:10500000FDFD3A46534600F0D1FC7FF6BCAD0022D0
:10501000019228F000403D493D4A01EB2051824277
:1050200023DA481C4FF4801121FA00F04044394A39
:10503000C0F30A517A44384BA1F2FF31CB4020EA49
:105040000303C0F3130040F48010C1F11401C84001
:1050500012680190B8F1000FBCBF40420190284691
:10506000314600F0CBFD05460E462A46334638460B
:10507000514600F031F94FF000084246274B4046B8
:10508000039100F095FBCDE90C01254A254B4046E4
:10509000039900F08DFB029100902A46334640466A
:1050A000039900F0ABFD3A46534600F0B5FC1E4AAA
:1050B0001E4B00F07DFB029B009A00F00DF90746A5
:1050C000884635E08E9803007AB60B00361900004A
:1050D0000000F03F6E1900009A1800000000084020
:1050E00009C7EE3FFD033ADCF5015B14E02F3EBE3D
:1050F0006E1700003217000000009040FE822B6502
:105100004715973C00CC904000346F3F01FCFFFFF7
:105110000000E03F80160000FFFF0F00432EE63F37
:10512000396CA80C615C20BEEF39FAFE422EE63FD6
:1051300002460B46DDE90C0100F0CEF8DDE90C2358
:1051400005460E4600F05AFD3A46434600F064FC20
:1051500007462A46334605911046194600F028FBBB
:10516000824602462E4888460B4605217844FFF7C2
:10517000E7FA5246434600F01BFB2A46334600F04E
:105180004BFC80468A463A4628463146059B00F04D
:105190000FFB3A46059B00F09FF805910090002216
:1051A0004FF080434046514600F028FD07460391EA
:1051B000424653462846314600F0FAFA3A46039BE7
:1051C00000F046F9059B009A00F018FD2A46334688
:1051D00000F014FD0022134B00F01EFC0546019860
:1051E0000E4601EB00510815002810DC2846314618
:1051F000019A01F0CEF9FFF78FFA042808BFFFF7F4
:105200000DFB28463146019A01F0C3F905460B46CD
:1052100014B02A4658462146BDE8F04D00F0C8BA01
:10522000201500000000F03F2DE9F04106460F4632
:1052300000F0FEFB041E0D4618BF0120284320F09D
:105240000040C0F17F6000F1E040C00F0ED0301C84
:1052500018BF0120384320F00040C0F17F6000F10A
:10526000E040C00F04BF0120FBF76CF9204629463F
:10527000BDE8F08121F0004201F00043A2F160524C
:10528000B2F5801F28BFD2F17F6C0BD95FEA001CFA
:1052900043EAC20242EB507018BF704728BF20F0AB
:1052A00001007047B2F5801FBCBF184670474FEA37
:1052B000410C1CF5001F02D2084601F0BEB870B5C3
:1052C00000F020FB00000089FFF7F6BF4FF0004020
:1052D000A0F580007047000010B591EA030F48BFA9
:1052E00083F0004300F19284841A71EB030C05D221
:1052F000121943EB0C03001B61EB0C014FEA115434
:10530000A4EB135CDFF81CE11EEA430F18BF9EEA12
:10531000445F00F0748021EA045123EA0E0343F451
:105320008013DCF1200E32D322FA0CFE10EB0E00BB
:1053300023FA0CFE41EB0E01CCF1200E03FA0EFE17
:1053400010EB0E00CCF1200E51F10001B1F5801FE1
:1053500032D201EB045112FA0EF2BDE8104058BFF0
:105360007047401C38BF5FEA420218BF70470028F0
:1053700014BF20F0010041F100014FEA410313F591
:10538000001F38BF7047A1F1C04100F009BB012ADE
:1053900043EB0302ACF1200CDCF11F0E32BF4FF0E7
:1053A000000E23FA0CF310EB030041EB0451B4EBB5
:1053B000115FD0D0A1EB045101F58011490801EB38
:1053C00004515FEA30000ED350F1000038BF12FAEA
:1053D0000EFE08D1BDE81040C9E7401C38BF5FEAA7
:1053E0004202CAD1C3E7BDE810404FEA410313F5BA
:1053F000001F38BF7047A1F1C04100F0D1BA9EEA4A
:10540000445F08D011EA5E0FBDE8104004BF01F010
:10541000004100207047BDE8104070B500F072FAFE
:1054200064FBBE3E0000E0FF02494FF0000001F0C7
:105430007EB800BF0000F87F491058BFC1F140415D
:105440005B1058BFC3F140438B42EFF300807047BD
:105450002DE9C04130B4DFF8A8C23CEA111418BFEE
:105460003CEA131400F0F0801CEA111481EA0305F1
:1054700044EAD57418BF1CEA131500F0CB80A4EBE6
:10548000050404F17F7404F500344FF0004545EA4B
:10549000C12145EAC32341EA505143EA52534FEA3E
:1054A000C0204FEAC222994208BF904200F0A0807B
:1054B0004FEA13650FF24816765D4FEA134506FB77
:1054C00005F7C7F1807706FB07F74FEAD737A7FB49
:1054D00003687642A7FB06CEC8F5803838BFA8F12E
:1054E000010807FB08E6A6FB028C4FF0000EE6FB66
:1054F00003CED8F100086FEA0C0C5CF1000C6FEAE7
:105500000E0E4EF1004EA6FB0C584FF00007E6FBC6
:105510000E87A1FB08C6A0FB07CE16EB0E064FF0C8
:10552000000545F10005E1FB076515F1E04E7EBF82
:10553000A4F580345FEA46066D4116F1800745F117
:1055400000054FEA172747EA05674FEA15254FEA96
:105550000666A6F1DE46B6F1805F20D9384605EB37
:10556000C47124F0010C01EB0C11BCF1FE6F02D8E8
:10557000F0BCBDE8008124425CBF01F5801E9EEABC
:10558000C47F02D4F0BCBDE80081244200F1398020
:10559000A1F1C041F0BCBDE8004100F001BA4FEA02
:1055A000D02040EA41504FEAD1214FEAD22242EACC
:1055B00043524FEAD323A7FB028607FB036605FB92
:1055C00002661EEA0E0F58BFA6EB0056B6EB005659
:1055D0004FEA520E4EEAC37E18EB0E0E56EB530EF8
:1055E000BCD518EB02085E417F1C55F10005B5E7FC
:1055F0004FF480154FF000074FF000064FF0000801
:10560000ACE701F1C04101F000414FF00000F0BCF7
:10561000BDE800810CEA131511EA0C1F00D00CE064
:1056200013EA0C1F00F025804FF0000081EA03010F
:1056300001F00041F0BCBDE80081F0BCBDE80041D4
:1056400081EA030100F0ACB9F0BCBDE8004170B5DF
:1056500000F058F9097EFC3E00F007B84FF000005A
:1056600081EA030101F00041704781EA030100F083
:1056700097B9F0BCBDE8004122494FF000007047E7
:10568000FFFDFBF9F7F5F4F2F0EEEDEBE9E8E6E407
:10569000E3E1E0DEDDDBDAD8D7D5D4D3D1D0CFCD8E
:1056A000CCCBCAC8C7C6C5C4C2C1C0BFBEBDBCBBC7
:1056B000BAB9B8B7B6B5B4B3B2B1B0AFAEADACABC2
:1056C000AAA9A8A8A7A6A5A4A3A3A2A1A09F9F9E9C
:1056D0009D9C9C9B9A99999897979695959493934E
:1056E000929191908F8F8E8E8D8C8C8B8B8A8989E5
:1056F0008888878786858584848383828281818068
:105700000000FF070000F87F10F0004248BF404251
:10571000B0FA80F310FA03F10AD0C3F11D0303F5C8
:10572000806302EB03524FEA415002EBD1217047F4
:105730004FF000007047000051EA030C17D41CF52D
:10574000801F58BFBCF5801F00F10680994218BF2A
:10575000704708BF9042704707D711F5801F58BFA8
:1057600013F5801F19D499427047894270471CF580
:10577000801F08D5BCF5801FF7D58B4218BF704736
:1057800008BF824270474FF4001C1CEB410F38BF2A
:105790001CEB430F01D28B42704770B500F0B2F89A
:1057A000922449004FF000514FF08053FFF744BE60
:1057B00070B5DFF848C11CEA111E1EBF1CEA1315A4
:1057C0009EEA0C0F95EA0C0F00F06F8081EA03044B
:1057D0004EEAD47EAE4421EA4C1123EA4C1341F444
:1057E000801143F48013AEF17F7EA1FB024CA0FB3D
:1057F0000365361955EB0C05A1FB034C4CF1000376
:10580000A0FB021C16EB0C06654153F10003094294
:1058100018BF46F0010613F4007F0BD14FEA0331A5
:105820004FEA053041EA155140EA165034036FF053
:1058300003020AE04FEAC3214FEAC52041EA55516D
:1058400040EA5650F4026FF0020202EB2E4201EBE6
:10585000025585EACE710AD05FEA440C18BF24F0E5
:10586000004450F1000041F1000120EAD47040F200
:10587000FE7C624500D270BDA84214BF4FF0804448
:105880004FF04044002E08BF0024BEF1806FA8BF37
:10589000A1F1C041BDE8704080F2828001F1C041B9
:1058A00001F000414FF0000070470CEA13159EEA2A
:1058B0000C0F18BF95EA0C0F06D081EA030E4FF0CB
:1058C00000000EF0004170BD00F01CF88900013EA0
:1058D00000F007B800F009B84FEA430C5FEA5C5CDF
:1058E00008D081EA030100F05BB84FEA410C5FEA9F
:1058F0005C5CF6D102494FF0000070470000FF07E2
:105900000000F87F0EF1020E2EF0030E5EF8046B1D
:10591000364205D4012A43EB030515F5001F12D8C2
:10592000012841EB010C1CF5001F0CD80ED14FEAE9
:10593000D17C0CEB4C0C0CF1020C15F5001F08BFD0
:105940004CEBD37C04E04FF0080C01E04FEAD37C31
:105950000CEB4C0526FA05F606F00706B6F1040C2A
:1059600006D20EEB860CBDE870404CF0010C60478F
:10597000DFE80CF0090B02024FF00041A1F5002115
:105980004FF0000070BD19461046012851EB01048C
:1059900018BFD4F5001484BF002001F0004170BD91
:1059A0000808A0F500114FEA3101704753EA010CD5
:1059B00017D41CF5801F58BFBCF5801F00F106806E
:1059C0008B4218BF704708BF8242704707D713F554
:1059D000801F58BF11F5801F19D48B4270479B421E
:1059E00070471CF5801F08D5BCF5801FF7D599427C
:1059F00018BF704708BF904270474FF4001C1CEB63
:105A0000430F38BF1CEB410F01D2994270470FB4CE
:105A10000CBC03BCFFF7C1BE10B591EA030F81F0C7
:105A200000413FF561AC83F0004300F0EFB80000A7
:105A30002DE9F04101F5801CBCF5001FC0F2C380C8
:105A40004FEA115C21EA0C5141F480110CF1FD0C7C
:105A50005FEA5C0C0CF5C07C01D34000494189022F
:105A600041EA905187023BA48E0EA45D0A0C04FB10
:105A700004F602FB06F6C6F14046A4FB0662F60DEC
:105A800046EA422606FB06F4A4FB01235242C3F178
:105A9000404338BF5B1EA6FB02420024E6FB032402
:105AA000D20B42EA4446A6FB0623A1FB02E2A3FB7B
:105AB00007E4A4184FF0000252F10002E3FB014298
:105AC0006442C2F1404E38BFAEF1010EA6FB042382
:105AD0004FF00002E6FB0E32A2FB0346B6194FF070
